:020000040800F2
:10000000004000201D150008750300087703000854
:10001000790300087B0300087D030008000000004E
:100020000000000000000000000000007F03000846
:100030008103000800000000830300088503000816
:100040006D1500086D1500086D1500086D15000888
:100050006D1500086D1500086D1500086D15000878
:100060006D1500086D1500086D1500086D15000868
:100070006D1500086D1500086D1500086D15000858
:100080006D1500086D1500086D1500086D15000848
:100090006D1500086D1500086D1500086D15000838
:1000A0006D1500086D1500086D1500086D15000828
:1000B0006D15000800000000000000006D1500082C
:1000C0006D1500086D1500086D1500080000000092
:1000D0006D1500086D1500086D1500086D150008F8
:1000E0006D1500086D1500086D1500080000000072
:1000F0000000000000000000000000000000000000
:100100000000000000000000000000006D15000865
:1001100000000000000000006D1500080000000055
:1001200000000000000000000000000000000000CF
:1001300000000000000000000000000000000000BF
:100140006D1500086D15000800000000000000009B
:10015000000000000000000000000000000000009F
:100160006D1500086D1500086D1500086D15000867
:100170006D150008000000000000000000000000F5
:08018000000000006D150008ED
:1001880000F1340191E838009C46A6464CF8045D1D
:1001980090E8FF0FE54600BD90EC210B704700BFCB
:1001A80080EC210B704700BF90EC200B704700BF1C
:1001B80080EC200B704700BFD0EC200B704700BFCD
:1001C800C0EC200B704700BFF0EC0201F0EC02110C
:1001D800F0EC0221F0EC0231F0EC0241F0EC0251BB
:1001E800F0EC0261F0EC0271F0EC0281F0EC0291AB
:1001F800F0EC02A1F0EC02B1F0EC02C1F0EC02D19B
:10020800F0EC02E1F0EC02F1704700BFE0EC020113
:10021800E0EC0211E0EC0221E0EC0231E0EC0241FA
:10022800E0EC0251E0EC0261E0EC0271E0EC0281EA
:10023800E0EC0291E0EC02A1E0EC02B1E0EC02C1DA
:10024800E0EC02D1E0EC02E1E0EC02F1704700BF23
:10025800B0FC0181B0FC0191B0FC01A1B0FC01B17E
:10026800704700BFA0FC0181A0FC0191A0FC01A186
:10027800A0FC01B1704700BFEC4600B52DE9005065
:100288002DE9FF1F4FF000032DE90C0001A901F033
:10029800E1FADDF840E012B0704700BFEC4600B567
:1002A8002DE900502DE9FF1F4FF000032DE90C0048
:1002B80001A901F009FBDDF840E012B0704700BF6A
:1002C800EC4600B52DE900502DE9FF1F4FF0000363
:1002D8002DE90C0001A901F019FBDDF840E012B08E
:1002E800704700BFEC4600B52DE900502DE9FF1F0F
:1002F8004FF000032DE90C0001AB01F0DBFADDF84B
:1003080040E012B0704700BFEC4600B52DE9005040
:100318002DE9FF1F4FF000032DE90C0001AA01F0A1
:1003280047FBDDF840E012B0704700BF10B5054C40
:10033800237833B9044B13B10448AFF30080012389
:10034800237010BD70000020000000001423000876
:1003580008B5034B1BB103490348AFF3008008BD40
:100368000000000074000020142300087047FEE716
:10037800FEE7FEE7FEE770477047704708B500F0F4
:100388008FFA08BD82B00A4B9A6942F001029A615D
:100398009A6902F001020092009ADA6942F08052EA
:1003A800DA61DB6903F080530193019B02B0704767
:1003B8000010024000B589B000230393049305930D
:1003C800069307930268144B9A4202D009B05DF86D
:1003D80004FB03F5E633DA6942F40032DA61DA69DC
:1003E80002F400320192019A5A6942F400325A61C9
:1003F8005B6903F400330293029B0C2303930223EB
:1004080004930023059306930723079303A94FF04A
:10041800904000F0AFFED9E70044004038B50446EC
:1004280083680269134342691343C269134301682D
:1004380008686C4A024013430B602268536823F42F
:100448004053E1680B435360A269236A1A43216849
:100458008B6823F4306313438B602368624A9342AA
:1004680015D0624A934228D002F58062934220D088
:100478001025E369B3F5004F21D0082D00F2A680BE
:10048800DFE805F06B7C86A491A4A4A49B00584BDC
:100498001B6B03F00303032B09D8DFE803F0020406
:1004A800060C0025E5E70425E3E70825E1E7102524
:1004B800DFE70025DDE70225DBE70025D9E7082D82
:1004C80048D8DFE805F0051D2847334747473E0071
:1004D80000F024FE6268530803EB4003B3FBF2F319
:1004E8009BB2A3F110014FF6EF72914271D89AB204
:1004F80022F00F02C3F3420313432268D3606BE078
:1005080000F022FE6268530803EB4003B3FBF2F3EA
:100518009BB20025E5E76268530803F5740303F509
:100528001053B3FBF2F39BB20025DAE700F0E4FCCA
:100538006268530803EB4003B3FBF2F39BB2002558
:10054800CFE76268530803F58033B3FBF2F39BB23D
:100558000025C6E701250023C3E700F0DFFD626838
:1005680000EB5203B3FBF2F39BB2A3F110014FF679
:10057800EF7291422FD82268D3602DE000F0E4FD9D
:10058800626800EB5203B3FBF2F39BB20025ECE781
:100598006268530803F5F40303F59053B3FBF2F3D1
:1005A8009BB20025E1E700F0A7FC626800EB52036C
:1005B800B3FBF2F39BB20025D7E76268530803F553
:1005C8000043B3FBF2F39BB20025CEE701250023DD
:1005D800CBE7012500E00125002323666366284652
:1005E80038BD00BFF369FFEF003801400044004008
:1005F80000100240436A13F0010F06D002685368E6
:1006080023F40033816A0B435360436A13F0020FEB
:1006180006D00268536823F48033C16A0B435360E1
:10062800436A13F0040F06D00268536823F480234A
:10063800016B0B435360436A13F0080F06D002683E
:10064800536823F40043416B0B435360436A13F030
:10065800100F06D00268936823F48053816B0B4314
:100668009360436A13F0200F06D00268936823F45E
:100678000053C16B0B439360436A13F0400F0AD0D9
:100688000268536823F48013016C0B435360036CB6
:10069800B3F5801F0BD0436A13F0800F06D00268B1
:1006A800536823F40023816C0B435360704702683E
:1006B800536823F4C003416C0B435360EBE72DE907
:1006C800F84305460F4616469946DDF820802C6803
:1006D800E46937EA04030CBF01240024B4423CD186
:1006E800B8F1FF3FF3D000F0E7F8A0EB0900404570
:1006F80021D8B8F1000F1ED02B681A6812F0040F29
:10070800E5D0DA6912F4006FE1D04FF400621A62A2
:100718002A68136823F4D07313602A68936823F057
:100728000103936020236B67AB67EB67002385F8B1
:100738007030032012E02A68136823F4D073136022
:100748002A68936823F00103936020236B67AB67E3
:10075800002385F87030032000E00020BDE8F8830E
:1007680030B583B004460023C36700F0A5F80546FA
:1007780023681B6813F0080F0CD123681B6813F05B
:10078800040F15D120236367A367002084F8700045
:1007980003B030BD6FF07E430093034600224FF450
:1007A80000112046FFF78BFF0028E6D00320EFE773
:1007B8006FF07E4300932B4600224FF480012046C1
:1007C800FFF77DFF0028DDD00320E1E768B310B50F
:1007D8000446436F03B3242363672268136823F036
:1007E800010313602046FFF719FE012813D0636A3E
:1007F800BBB92268536823F4904353602268936816
:1008080023F02A0393602268136843F001031360FE
:100818002046FFF7A5FF10BD80F87030FFF7CAFD2E
:10082800D9E72046FFF7E6FEE3E70120704700001E
:1008380010B504460E4B18784FF47A73B3FBF0F3F7
:100848000C4A1068B0FBF3F000F0A4FD68B90F2C57
:1008580001D901200AE0002221464FF0FF3000F0C4
:1008680065FD054B1C60002000E0012010BD00BFA5
:1008780000000020080000200400002008B5074AF6
:10088800136843F010031360032000F03DFD0020BF
:10089800FFF7CEFFFFF776FD002008BD00200240DD
:1008A800034A1168034B1B780B441360704700BF61
:1008B8000C01002000000020014B1868704700BFA1
:1008C8000C010020002800F0018370B582B00446B6
:1008D800036813F0010F3BD0B54B5B6803F00C03C2
:1008E800042B1ED0B24B5B6803F00C03082B13D00B
:1008F8006368B3F5803F68D0002B40F0928003F125
:10090800804303F504331A6822F480321A601A68A7
:1009180022F480221A605DE0A54B5B6813F4803FE7
:10092800E6D04FF4003393FAA3F3A14B19684FF4C0
:10093800003393FAA3F3B3FA83F303F01F030122FE
:1009480002FA03F30B4203D06368002B00F0C08265
:10095800236813F0020F00F0C580954B5B6813F015
:100968000C0F00F09C80924B5B6803F00C03082B83
:1009780000F08F802369002B00F0F280012292FAA8
:10098800A2F3B3FA83F303F1845303F584139B00B2
:100998001A60FFF791FF0546022393FAA3F3844BED
:1009A8001968022393FAA3F3B3FA83F303F01F033E
:1009B800012202FA03F30B4240F0C380FFF77CFFE9
:1009C800401B0228E8D903208BE2794A136843F4D4
:1009D80080331360764AD36A23F00F03A1680B4370
:1009E800D3626368002B36D0FFF766FF05464FF4E5
:1009F800003393FAA3F36E4B19684FF4003393FA5C
:100A0800A3F3B3FA83F303F01F03012202FA03F3FB
:100A18000B429DD1FFF750FF401B6428E7D9032004
:100A28005FE2B3F5A02F09D0614B1A6822F4803237
:100A38001A601A6822F480221A60CBE703F1804317
:100A4800A3F53C331A6842F480221A601A6842F40B
:100A580080321A60BEE7FFF72FFF05464FF40033D8
:100A680093FAA3F3524B19684FF4003393FAA3F3A4
:100A7800B3FA83F303F01F03012202FA03F30B42D4
:100A88003FF466AFFFF718FF401B6428E6D9032040
:100A980027E2474B5B6813F4803F7FF46BAF022378
:100AA80093FAA3F3424B1968022393FAA3F3B3FA18
:100AB80083F303F01F03012202FA03F30B4203D06E
:100AC8002369934240F006823948036823F0F8030B
:100AD8006169F82292FAA2F2B2FA82F201FA02F2FB
:100AE80013430360236813F0080F00F08D80A36997
:100AF800002B61D0012191FAA1F2B2FA82F22D4BBA
:100B080013449B001960FFF7D7FE0546022393FAAA
:100B1800A3F293FAA3F293FAA3F2254A516A93FA3D
:100B2800A3F3B3FA83F303F01F03012202FA03F3DA
:100B38000B4269D1FFF7C0FE401B0228E6D903200B
:100B4800CFE11B48036823F0F8036169F82292FAA1
:100B5800A2F2B2FA82F201FA02F213430360C1E789
:100B6800012393FAA3F3B3FA83F303F1845303F550
:100B780084139B0000221A60FFF79EFE054602239D
:100B880093FAA3F30A4B1968022393FAA3F3B3FA6F
:100B980083F303F01F03012202FA03F30B42A1D0EF
:100BA800FFF78AFE401B0228E9D9032099E100BF1C
:100BB8000010024020819010012292FAA2F2B2FAAB
:100BC80082F2B74B13449B0000221A60FFF774FEB1
:100BD8000546022393FAA3F293FAA3F293FAA3F237
:100BE800B04A516A93FAA3F3B3FA83F303F01F03ED
:100BF800012202FA03F30B4206D0FFF75DFE401B09
:100C08000228E6D903206CE1236813F0040F00F0F2
:100C1800A980A44BDB6913F0805F0BD1A14BDA6983
:100C280042F08052DA61DB6903F080530193019B43
:100C3800012500E000259C4B1B6813F4807F10D031
:100C4800E368012B21D063BB03F1804303F5043330
:100C58001A6A22F001021A621A6A22F004021A625F
:100C680018E0914A136843F480731360FFF724FE79
:100C780006468D4B1B6813F4807FE1D1FFF71CFEFD
:100C8800801B6428F5D903202BE1864A136A43F0B8
:100C980001031362E368002B3CD0FFF70DFE064604
:100CA8002EE0052B09D07F4B1A6A22F001021A6246
:100CB8001A6A22F004021A62ECE77A4B1A6A42F0C6
:100CC80004021A621A6A42F001021A62E2E7022377
:100CD80093FAA3F3734B596A022393FAA3F3B3FA73
:100CE80083F303F01F03012202FA03F3194238D1F8
:100CF800FFF7E2FD801B41F28833984200F2EC8056
:100D0800022393FAA3F293FAA3F3002BDFD0654BE7
:100D1800196AE1E7FFF7D0FD064618E0022393FAC7
:100D2800A3F3604B596A022393FAA3F3B3FA83F34C
:100D380003F01F03012202FA03F3194211D0FFF74F
:100D4800BBFD801B41F28833984200F2C780022322
:100D580093FAA3F293FAA3F3002BDFD0514B196A4D
:100D6800E1E7B5BBE369002B00F0BA804D4A526851
:100D780002F00C02082A00F09980022B2FD04FF0C5
:100D8800807393FAA3F3B3FA83F303F1845303F55F
:100D980084139B0000221A60FFF78EFD04464FF073
:100DA800007393FAA3F33F4B19684FF0007393FA5B
:100DB800A3F3B3FA83F303F01F03012202FA03F348
:100DC80019426BD0FFF778FD001B0228E7D90320F2
:100DD80087E0344AD36923F08053D361C2E74FF0E8
:100DE800807393FAA3F3B3FA83F303F1845303F5FF
:100DF80084139B0000221A60FFF75EFD05464FF042
:100E0800007393FAA3F3274B19684FF0007393FA12
:100E1800A3F3B3FA83F303F01F03012202FA03F3E7
:100E2800194206D0FFF748FD401B0228E7D90320E6
:100E380057E01C494B6823F47413626A206A024322
:100E480013434B604FF0807393FAA3F3B3FA83F321
:100E580003F1845303F584139B0001221A60FFF702
:100E68002BFD04464FF0007393FAA3F30D4B19685A
:100E78004FF0007393FAA3F3B3FA83F303F01F035D
:100E8800012202FA03F3194206D1FFF715FD001BF0
:100E98000228E7D9032024E0002022E0002020E0F7
:100EA800208190100010024000700040012B1AD0E1
:100EB800104B5B6803F48031226A914215D103F428
:100EC8007013626A934212D100200AE00120704731
:100ED800012006E0012004E0032002E0032000E0F6
:100EE800002002B070BD0120FBE70120F9E70120D6
:100EF800F7E700BF00100240164B5B6803F00C02D6
:100F0800082A01D01448704703F470114FF4701286
:100F180092FAA2F2B2FA82F221FA02F20F49885C3E
:100F28000C4AD26A02F00F020F2191FAA1F1B1FA2C
:100F380081F1CA400A498A5C13F4803F05D0064B08
:100F4800B3FBF2F300FB03F07047064B03FB00F022
:100F5800704700BF0010024000127A002C230008DE
:100F68003C23000800093D00002800F0BE8070B551
:100F78000D460446614B1B6803F007038B420BD2F6
:100F88005E4A136823F007030B431360136803F0EA
:100F980007038B4240F0AB80236813F0020F06D0A2
:100FA800574A536823F0F003A1680B435360236842
:100FB80013F0010F5AD06368012B2DD0022B40D0BB
:100FC800022292FAA2F24E4A1068022292FAA2F281
:100FD800B2FA82F202F01F02012101FA02F2104273
:100FE80000F0878046494A6822F0030213434B60A9
:100FF800FFF762FC0646424B5B6803F00C0362682D
:10100800B3EB820F32D0FFF757FC801B41F28833D5
:101018009842F0D9032067E04FF4003292FAA2F226
:10102800374A10684FF4003292FAA2F2B2FA82F20A
:1010380002F01F02012101FA02F20242D2D101207C
:1010480052E04FF0007292FAA2F22D4A10684FF067
:10105800007292FAA2F2B2FA82F202F01F020121A1
:1010680001FA02F21042BDD101203DE0234B1B687A
:1010780003F00703AB420AD9204A136823F0070399
:101088002B431360136803F00703AB4233D1236883
:1010980013F0040F06D01A4A536823F4E063E1689A
:1010A8000B435360236813F0080F07D0144A5368A2
:1010B80023F46053216943EAC1035360FFF71CFF1F
:1010C8000F4B5B6803F0F003F02292FAA2F2B2FA37
:1010D80082F2D3400B4AD35CD8400B4B18600B4BC1
:1010E8001868FFF7A5FB002070BD0120704701209C
:1010F800FAE70120F8E70120F6E700BF00200240E8
:10110800001002404C2300080800002004000020C2
:10111800014B1868704700BF0800002008B5FFF7AA
:10112800F7FF074B5B6803F4E0634FF4E06292FA61
:10113800A2F2B2FA82F2D340024AD35CD84008BD88
:10114800001002405C23000808B5FFF7E1FF074BD9
:101158005B6803F460534FF4605292FAA2F2B2FA59
:1011680082F2D340024AD35CD84008BD0010024046
:101178005C230008F0B482B0002236E0032400E0CB
:101188000024B4403C430235584E46F82540584C9C
:101198002568DC4325EA03064F6817F4803F01D031
:1011A80043EA0506524D2E606D6804EA05064F684D
:1011B80017F4003F01D043EA05064D4D6E60AD6857
:1011C80004EA05064F6817F4801F01D043EA0506B4
:1011D800474DAE60ED682C404E6816F4001F01D0F4
:1011E80043EA0504424BDC6001320B6833FA02F42F
:1011F80079D0012494402340F6D04D68022D01D0C7
:10120800122D10D1D608083650F826C002F007056E
:10121800AF000F25BD402CEA050C0D69BD4045EA1D
:101228000C0540F82650D0F800C056000325B540FC
:10123800EF432CEA050C4D6805F00305B54045EA77
:101248000C0505604D6805F1FF3CBCF1010F03D9A1
:10125800112D01D0122D10D1856807EA050CCD6833
:10126800B54045EA0C058560456825EA04044D68E3
:10127800C5F30015954025434560C46827408C6830
:10128800B4403C43C4604C6814F0805FACD0194C47
:10129800A56945F00105A561A46904F0010401945C
:1012A800019C9508AE1C114C54F8267002F00304FA
:1012B800A6000F24B44027EA0407B0F1904F3FF48A
:1012C8005FAF0D4CA0420AD004F58064A04208D05C
:1012D80004F58064A0423FF451AF052451E701248E
:1012E8004FE702244DE702B0F0BC70470000014010
:1012F8000004014000100240000400480AB1816166
:101308007047816270470000074AD36823F4E0639E
:101318001B041B0C000200F4E060034343F0BF63AE
:1013280043F40033D360704700ED00E030B4174B4E
:10133800DB68C3F30223C3F10704042C28BF042489
:101348001D1D062D18D9033B4FF0FF3505FA04F48F
:1013580021EA0401994005FA03F322EA0303194339
:1013680000280BDB0901C9B200F1604000F56140BB
:1013780080F8001330BC70470023E5E700F00F0049
:101388000901C9B2024B1954F4E700BF00ED00E0AF
:1013980014ED00E00138B0F1807F0AD2064B5860A6
:1013A800064AF02182F823100020986007221A606C
:1013B80070470120704700BF10E000E000ED00E03A
:1013C800054BD3F8882042F47002C3F888204FF008
:1013D80000629A60704700BF00ED00E070B58AB007
:1013E800002405940694079408940994204B5A699C
:1013F80042F400225A615A6902F400220192019AC9
:101408005A6942F480025A615A6902F480020292CF
:10141800029A5A6942F400325A615A6902F4003257
:101428000392039A5A6942F480225A615B6903F471
:1014380080230493049B0F4D22464FF40051284605
:10144800FFF75CFF4FF4005605960B4B0693079485
:1014580005A90A48FFF78EFE05960123069307940F
:10146800089405A92846FFF785FE0AB070BD00BF9D
:101478000010024000040048000021100008004845
:1014880008B50948094B03604FF41643436000232D
:101498008360C36003610C2242618361C36103629C
:1014A8004362FFF793F908BD8C0000200044004018
:1014B80030B591B000240794089409940C940194D1
:1014C80002940394049405940225069501230A9333
:1014D80010230B930D950E944FF460130F9306A8E9
:1014E800FFF7F0F90F230193029503944FF48063FB
:1014F80004930594294601A8FFF736FD11B030BDC5
:1015080008B5FFF7BBF9FFF7D3FFFFF767FFFFF752
:10151800B7FFFEE7DFF834D0002103E00C4B5B583F
:10152800435004310B480C4B42189A42F6D30B4AED
:1015380002E0002342F8043B094B9A42F9D3FFF733
:101548003FFF00F011F8FFF7DBFFFEE70040002047
:101558002C240008000000207000002070000020EB
:1015680014010020FEE7000070B50D4D0D4C641B02
:10157800A4100026A64209D10B4D0C4C00F0C6FE63
:10158800641BA4100026A64205D170BD55F8043B83
:1015980098470136EEE755F8043B98470136F2E7DD
:1015A80024240008242400082424000828240008EF
:1015B80003685A004CBF43F0004323F0004318442B
:1015C800704700BF2DE9F84329B34F1E044615465E
:1015D8003E464FF0000808EB060101EBD1714910B7
:1015E80004EBC1094846FFF7E3FF0346C80008308B
:1015F8008F42204409D0AB4209D8FFF7D9FF013800
:10160800A8420AD201F10108E5E7AB4205D98845AD
:1016180001D04E1EDFE74FF000094846BDE8F883C9
:10162800012807D0022807D0044B00280CBF184611
:10163800002070470248704702487047D91C0008CC
:10164800E11C0008E91C000830B5234B83B00446B0
:101658008D1E3BB301A92846AFF30080E8B101997C
:101668002A46FFF7AFFF0146B8B1FFF7A1FF4B6865
:10167800A064012B2BD0002B01F1040023DBFFF722
:1016880097FF0023C4E913030368002B10DBFFF75F
:101698008FFF2061002003B030BD002309202361A3
:1016A80003B030BD0D490E48091AC9100191D7E79A
:1016B800C3F30360FFF7B4FF0028206114BF0020C4
:1016C800092003B030BD0123C4E91303DCE700237C
:1016D80023610520DFE700BF000000002424000884
:1016E8007C2300080368DA0710B5044606D49B0774
:1016F80000F1480009D5FEF757FD2368590709D5B9
:101708001A070ED5DB0613D510BDFEF745FD236875
:101718005907F5D404F1D000FEF74EFD23681A07E7
:10172800F0D404F5A870FEF74FFD2368DB06EBD470
:1017380004F5E870BDE81040FEF78ABD034600686E
:1017480000B11844704700BF704700BF70B5044629
:101758000E46316C2046FFF777FF054688B9336C93
:101768006361324623692146012098470828F0D052
:10177800072806D12846316CFFF7E6FF301DFEF733
:10178800FFFC00F057FD00BF2DE9F0470D1D064690
:1017980014460FCDADF5727D0DF10C0CACE80F00C1
:1017A8000FCDACE80F000FCDACE80F0095E80F00A7
:1017B80002ADF768D6F818808CE80F0000232B607C
:1017C80021E02B6C73614FF4F07229467AA800F07F
:1017D80038FD33697AAA314650469847889BCDE947
:1017E800005821466B648146334632460120B8478B
:1017F8000446E8B94FF4F0727AA9284600F021FDB2
:10180800B9F1080F1BD1296C3046FFF71DFF0934C9
:101818005FFA84FA81460028D3D0AB6B4AF01001F6
:10182800CDE9005832466B6401203346B84708B109
:101838004FF0090948460DF5727DBDE8F087B9F10A
:10184800070FF5D12046296CFFF77EFF03A8FEF7A6
:1018580097FC00BFF0B5CB6B0B640E1D0F46054619
:101868000FCEF9B001AC0FC40FCE0FC40FCE0FC40A
:1018780096E80F004FF0FF3684E80F00009606E068
:101888002B696A46294698470828044608D11099C2
:101898002846FFF7D9FE0028F2D0092079B0F0BD1C
:1018A8006846FFF71FFF062CF7D139462846FFF791
:1018B8004DFF00BF30B4DD6BC160826119461D6405
:1018C800002230BCFFF760BF70B5C66843690B647F
:1018D800AEB903690A4604460D46014602209847F8
:1018E800072805D008280FD129462046FFF72EFFE4
:1018F8003046296CFFF728FF281DFEF741FC01221E
:10190800FFF742FF00F096FC00F094FCC26822B199
:10191800CA6B0A640022FFF737BFFFF79BBF00BFFF
:10192800012912D009D873B90F2A0CD800EB82020A
:1019380018465368009A136070470339012994BF09
:10194800012002207047022070470846704700BFF8
:1019580010B584B0002303AC0A4600941946FFF77B
:10196800DFFF039804B010BD012912D009D873B95C
:101978000F2A0CD800EB8200009A126842601846C1
:1019880070470339012994BF0120022070470220C3
:1019980070470846704700BF10B584B0002303ACF9
:1019A800039200940A461946FFF7DEFF04B010BD03
:1019B800F0B5D36B1364151D8C4606460FCDADF5F7
:1019C8000F7D17AC0FC40FCD0FC40FCD0FC495E812
:1019D8000F004FF0FF3784E80F006546169710E0B8
:1019E800FFF7DAFF294616A8B047034616AA694644
:1019F800082083B9049B9847052804460CD0092879
:101A080009D026996846FFF71FFE03466A460C214F
:101A180016A8002BE4D0092416A8FFF763FE204679
:101A28000DF50F7DF0BD00BF2DE9F04FCC6C89B0EE
:101A38000D4654F8041B0694174600F003081E468A
:101A4800002B79D00B0CDAB209048DF81D30022373
:101A580004EB820405918DF81C302B6DB8F1020F50
:101A680008BFAC6B13F001030CD0384605A900F091
:101A780093FA18B9082009B0BDE8F08F092009B019
:101A8800BDE8F08FD4F800A0BAF1000FEDD00193B3
:101A980000F008030293022E4AD0B4F800A0B4F86C
:101AA80002900434AA6C29F0010B0F2138469344A4
:101AB800FFF74EFF834539D82AF001025A44824283
:101AC80094BF002001204FEA490303F002030AF003
:101AD800010A43EA0A03012B49D0022B32D0002B1A
:101AE800CCD1B8F1000F02D0002840F0CD800434EA
:101AF800D4F800A0BAF1000FCDD105A9384600F0FE
:101B08004BFA0028BAD1019B002BB3D00F213846DD
:101B1800FFF71EFF0E2102463846FFF73DFF384605
:101B28006A4A0F21FFF738FF0720A8E70020CAE715
:101B3800D4F804900834B5E7090203230591ADF8F9
:101B48001C308AE7236823F0004BB8F1000F45D119
:101B580028B1029A002A5CD0BBF1000F74D0002B88
:101B680000DA04340BF1010B04EB8B04C0E7B8F185
:101B7800000F19D1B0B1D4E90023991C4FEAD272F1
:101B88003FF47CAF05F158010133049100F09080D7
:101B9800201DFFF7D3FD04AB01462846AFF30080B4
:101BA80000285BD10834A3E70D213846D5F82090EA
:101BB800FFF7CEFE8145F5D1AB6A9C42F2D12046B3
:101BC800FFF7F6FC0F2102463846FFF7E5FE3846D8
:101BD8002A460021FFF7E0FE072050E70D2138468E
:101BE800D5F82090FFF7B4FE814501D02368B6E709
:101BF800AB6A9C42FAD104220021C5E90B12A31852
:101C0800C5F828B06B6323688B4259DB0123019325
:101C1800A8E705F15803CDF80C8004F1040AB04692
:101C280091461E460DE00496FFF788FD04AB014679
:101C380000222846AFF3008009F101090AF1040ADD
:101C4800E8B9D9455046EED138460D21FFF780FE58
:101C5800049B2862C5E90934062010E781460D2156
:101C68003846FFF775FEB9F1020F286225D12B46D9
:101C7800049A43F82C2F6B62AC620620FFE64646B6
:101C88002368DDF80C806AE72046FFF791FC0434EE
:101C98000246AC6328461446AFF3008000283FF4A0
:101CA800EDAE384622460F21FFF776FE0720E6E61E
:101CB80038460D21FFF74CFE2862049B6B62DBE778
:101CC8000BF1010004EB80007AE700BF0000000080
:101CD8000023FFF7A9BE00BF0123FFF7A5BE00BF81
:101CE8000223FFF7A1BE00BF2DE9F0430646C3B0AB
:101CF80015461C46042900F2B980DFE801F09A5322
:101D0800B7290300002C40F0B180102A00F2AE8001
:101D18000368D80600F1F38020AF3846FEF7A2FA30
:101D2800B06B0023012404FA03F22A42014604D0CE
:101D380051F8042B47F8232008460133042BF2D12D
:101D4800B0633846FEF784FA002043B0BDE8F0835C
:101D5800032C40F08B8094B204EB1243102B4FEA13
:101D6800124500F2838003681F0700F1D08020AF7E
:101D78003846FEF74BFA07EBC501B56B54B10B4675
:101D8800E81A01EBC401E4001A5843F8042B8B420B
:101D9800FAD125443846B563FEF716FA002043B059
:101DA800BDE8F083012C4FEA124895B25AD0052CB1
:101DB8005CD108EB0509B9F1200F57D8B8F10F0F1E
:101DC80077D9A946002D40F08880B36B6DB320AF5A
:101DD8004FF0000907EBC807043F03EBC50553F8AC
:101DE800041B47F8041FAB42F9D1B9F1000F0FD01B
:101DF8006F464146102938BF102107EBC1018439CD
:101E080003EBC90553F8040B41F8040FAB42F9D1B1
:101E1800012C00F08480B8F10F0FB56345D9B9F1F2
:101E2800000F02D06846FEF7C7F9002043B0BDE8AE
:101E3800F083DCB9876B2346012094B206F1040CC9
:101E480000FA03F22242394604D051F8042B4CF828
:101E580023200F460133102BF2D115F40050E4D1A2
:101E6800B76304E008EB0503102B03D9022043B045
:101E7800BDE8F083B8F10F0FF8D83368DA0706D554
:101E8800304623F0030340F8483BFEF789F920AFBA
:101E98003846FEF785F9B36B002D99D11D460435F8
:101EA800B5633846FEF778F9BFE720A8FEF77CF956
:101EB800B5E7B9F1100F40D9A9F110093368D9076E
:101EC80008D523F00103304643F0020340F8483BAD
:101ED800FEF76EF9B9F1000F32D033685A0720D4F3
:101EE800B8F10F0F25D96F463846C8F11005FEF72F
:101EF80067F9002DB36B7FF77CAF20AF6AE723F05B
:101F08001003336006F5E870FEF7ACF904E723F038
:101F18000803036000F5A870FEF778F927E720AFFB
:101F2800BDE7304623F0040340F8D03BFEF748F9FC
:101F3800D6E720A8FEF73CF9D5E74FF00009BDE742
:101F4800B8F10F0F3FF641AF20AF3846FEF730F932
:101F5800B36B002D7FF43CAF3846FEF725F964E7F4
:101F6800027A7AB9437AA3B14268013B10B443724A
:101F780013680321141D01721A024460026010BC28
:101F8800180E70470368013A02721A020260180EAE
:101F98007047B020704700BF2DE9F043054685B073
:101FA8000E464FF000083046FFF7DAFFB028044627
:101FB80000F0B280070620D500F0F003802B4DD04A
:101FC800902B36D0A02B60D0B02B74D0C02B00F053
:101FD8008B8000F0F803D02B0BD100F00702013200
:101FE80042F40022052301212846FFF77DFE002840
:101FF800D9D0092005B0BDE8F0830DF10C09002304
:1020080019468700CDF800900D222846FFF788FC76
:10201800FFB2039BCDF80090043760064CBFDF1B6E
:10202800FF18002319460D2228460397FFF79CFC4A
:10203800B9E700F00D030D2BDBD003AF002300F050
:102048000F02194600972846FFF76AFC00230097FD
:1020580019460D222846FFF787FCA4E73046FFF70C
:102068007FFF24022043B0F5004FC2D004010023B3
:10207800A2B219462846FFF737FE0028B9D114F452
:10208800004F18BF4FF001088DE7C24302F0070365
:102098004FF47F621A41010702F47F624FF0000398
:1020A80048BF42F4804219462846FFF71DFE002823
:1020B8003FF479AF9DE7B12833D0B22800F08B8088
:1020C800B32839D000F0FC03B42B92D000F00702FB
:1020D8000132012342F4002219462846FFF704FE84
:1020E80000283FF460AF84E7C62842D0C7284CD008
:1020F80000F0F803C02B5BD0C82860D0C9287FF453
:1021080078AF3046FFF72CFF020300F00F0002F40F
:1021180070220130024365E7B8F1000F18D00020A3
:1021280068E73046FFF71CFF024600283FF461AF1E
:1021380010F0F003D0D05CE73046FFF711FF010341
:1021480000F00F0001F47021421C01230A43C3E789
:1021580003AC43460E22414600942846FFF7E0FBB5
:102168000094284643460F224146FFF7FDFB4046B0
:1021780040E73046FFF7F4FE010300F00F0001F4DA
:102188007021421C03230A43A6E73046FFF7E8FE06
:10219800024600283FF42DAF10F0F0037FF429AF7A
:1021A80004212846FFF7A0FD00283FF4FCAE20E7F5
:1021B80000F00F020132032342F420228CE730465C
:1021C800FFF7CEFE00F0F00200F00F0310320133EB
:1021D80043EA023206E700230DF10C090D221946E5
:1021E800CDF800902846FFF79BFB3046FFF7B8FE76
:1021F80002064FF002070CD5039B00F07F00B840A1
:10220800034430460393FFF7ABFE030607F10707C5
:10221800F2D4039BCDF8009000F07F0403F501721F
:10222800BC400023144419460D2228460394FFF7A6
:102238009BFBB8E608B5062000F03AF8012000F04C
:1022480063F80A44914200F1FF3300D1704710B59A
:1022580011F8014B03F8014F9142F9D110BD1F2924
:1022680038B504460D4604D9162303604FF0FF30F5
:1022780038BD426C12B152F821304BB9204600F0FB
:1022880031F82A4601462046BDE8384000F018B823
:10229800012B0AD0591C03D1162303600120E7E75C
:1022A800002442F82540284698470020E0E700002F
:1022B800024B01461868FFF7D2BF00BF0C00002090
:1022C80038B5074D00230446084611462B6000F038
:1022D80013F8431C02D12B6803B1236038BD00BF3B
:1022E8001001002000F000B8024B58221A604FF08D
:1022F800FF30704710010020024B58221A604FF03F
:10230800FF30704710010020FEE700BFF8B500BF9E
:10231800F8BC08BC9E467047F8B500BFF8BC08BCBE
:042328009E46704716
:10232C0002030405060708090A0B0C0D0E0F10100A
:10233C000102030405060708090A0B0C0D0E0F1009
:10234C000000000000000000010203040607080959
:08235C0000000000010203046F
:1023640008B10181B0B000840000000008B101810F
:08237400B0B00084000000007D
:10237C0068F0FF7FB0AA098004F1FF7FDCFFFF7FCC
:10238C002CF1FF7FB0A9108074F1FF7FD8FFFF7F85
:10239C0080F1FF7F01000000ACF2FF7FB0A902804A
:1023AC0040F3FF7FB0B0A88090F3FF7F01000000E6
:1023BC0098F3FF7FB0B0AA80CCF3FF7FAE71B280F0
:1023CC0090F4FF7FAB3F3880E8F4FF7F0100000002
:1023DC00F4F4FF7FB0B0AA8030F5FF7F010000005D
:1023EC00CCF5FF7FAB0EB2803CF6FF7FB0AF088020
:1023FC00DCF8FF7F01000000ECF8FF7FAD3F0280AE
:10240C005CFBFF7F010000008CFBFF7FB0AD048004
:08241C0020FEFF7F010000001B
:042424005903000850
:042428003503000870
:10242C00010000001000000000127A0010000020D3
:10243C000000000000000000000000000000000090
:10244C000000000000000000000000000000000080
:10245C000000000000000000000000000000000070
:10246C000000000000000000000000000000000060
:10247C000000000000000000000000000000000050
:10248C000000000000000000000000000000000040
:040000050800151DBD
:00000001FF
