:020000040800F2
:1000000000400020A11400087503000879030008CF
:100010007D0300088103000885030008000000003C
:10002000000000000000000000000000890300083C
:100030008D030008000000009103000895030008EC
:10004000F1140008F1140008F1140008F11400087C
:10005000F1140008F1140008F1140008F11400086C
:10006000F1140008F1140008F1140008F11400085C
:10007000F1140008F1140008F1140008F11400084C
:10008000F1140008F1140008F1140008F11400083C
:10009000F1140008F1140008F1140008F11400082C
:1000A000F1140008F1140008F1140008F11400081C
:1000B000F11400080000000000000000F114000826
:1000C000F1140008F1140008F11400080000000009
:1000D000F1140008F1140008F1140008F1140008EC
:1000E000F1140008F1140008F114000800000000E9
:1000F0000000000000000000000000000000000000
:10010000000000000000000000000000F1140008E2
:100110000000000000000000F114000800000000D2
:1001200000000000000000000000000000000000CF
:1001300000000000000000000000000000000000BF
:10014000F1140008F1140008000000000000000095
:10015000000000000000000000000000000000009F
:10016000F1140008F1140008F1140008F11400085B
:10017000F114000800000000000000000000000072
:0801800000000000F11400086A
:1001880000F1340191E838009C46A6464CF8045D1D
:1001980090E8FF0FE54600BD90EC210B704700BFCB
:1001A80080EC210B704700BF90EC200B704700BF1C
:1001B80080EC200B704700BFD0EC200B704700BFCD
:1001C800C0EC200B704700BFF0EC0201F0EC02110C
:1001D800F0EC0221F0EC0231F0EC0241F0EC0251BB
:1001E800F0EC0261F0EC0271F0EC0281F0EC0291AB
:1001F800F0EC02A1F0EC02B1F0EC02C1F0EC02D19B
:10020800F0EC02E1F0EC02F1704700BFE0EC020113
:10021800E0EC0211E0EC0221E0EC0231E0EC0241FA
:10022800E0EC0251E0EC0261E0EC0271E0EC0281EA
:10023800E0EC0291E0EC02A1E0EC02B1E0EC02C1DA
:10024800E0EC02D1E0EC02E1E0EC02F1704700BF23
:10025800B0FC0181B0FC0191B0FC01A1B0FC01B17E
:10026800704700BFA0FC0181A0FC0191A0FC01A186
:10027800A0FC01B1704700BFEC4600B52DE9005065
:100288002DE9FF1F4FF000032DE90C0001A901F033
:10029800A3FADDF840E012B0704700BFEC4600B5A5
:1002A8002DE900502DE9FF1F4FF000032DE90C0048
:1002B80001A901F0CBFADDF840E012B0704700BFA9
:1002C800EC4600B52DE900502DE9FF1F4FF0000363
:1002D8002DE90C0001A901F0DBFADDF840E012B0CD
:1002E800704700BFEC4600B52DE900502DE9FF1F0F
:1002F8004FF000032DE90C0001AB01F09DFADDF889
:1003080040E012B0704700BFEC4600B52DE9005040
:100318002DE9FF1F4FF000032DE90C0001AA01F0A1
:1003280009FBDDF840E012B0704700BF10B5054C7E
:10033800237833B9044B13B10448AFF30080012389
:10034800237010BD700000200000000098220008F3
:1003580008B5034B1BB103490348AFF3008008BD40
:10036800000000007400002098220008704700BFB9
:10037800FEE700BFFEE700BFFEE700BFFEE700BFE5
:10038800704700BF704700BF704700BF00F03CBA1D
:100398000A4B9A6942F001029A619A6982B002F0A6
:1003A80001020092009ADA6942F08052DA61DB6950
:1003B80003F080530193019B02B070470010024084
:1003C80070B50168194A88B000239142CDE902331B
:1003D800CDE90433069301D008B070BD03F1804322
:1003E80003F504330720DA6942F40032DA61DA6986
:1003F80002F400320092009A5A6942F400325A61BB
:100408005B69069003F4003301930022002302A9DC
:100418000C2402254FF09040CDE90245CDE9042394
:10042800019E00F049FE08B070BD00BF00440040C6
:10043800436ADA0710B406D50168846A4A6822F468
:10044800003222434A609C0706D50168C46A4A689C
:1004580022F4803222434A60590706D50168046BAA
:100468004A6822F4802222434A601A0706D50168A6
:10047800446B4A6822F4004222434A60DC0606D5EF
:100488000168846B8A6822F4805222438A60990644
:1004980006D50168C46B8A6822F4005222438A6038
:1004A8005A0609D50168046C4A6822F4801222436E
:1004B800B4F5801F4A600BD01B0606D50268816C14
:1004C800536823F400230B4353605DF8044B7047D3
:1004D8004A68446C22F4C00222434A60ECE700BF39
:1004E80038B500230446C36700F09AF923681A68F0
:1004F8001107054609D41A6852072AD40020202378
:1005080084F870006367A36738BDDA699202F2D491
:1005180000F086F92368401BB0F1007F1A6829D2E1
:100528005007F2D5DA691105EFD54FF400621A6267
:100538001A6822F4D0721A609968002521F0010126
:100548009960202284F8705062670320A267E267EE
:1005580038BDDB695802D1D400F062F92368401B2A
:10056800B0F1007F1A6805D25107F2D5DA69120591
:10057800EFD5DAE722F4D0721A609A68002522F0E3
:1005880001029A60202184F8705061670320A167F6
:1005980038BD00BF002800F0C180F8B5436F04469D
:1005A800002B60D02368276966697749242262672F
:1005B8001868A26820F0010018601D68E0693A43D5
:1005C8003243294002430A431A605968E568A26920
:1005D800266A21F440512943596099686B4D21F4EA
:1005E800306132430A43AB429A600BD0684A934267
:1005F8000FD002F5806293420BD00023C4E9183370
:100608000120F8BD634B1B6B03F00303013B022B76
:1006180033D9B0F5004F00F0B48000F01DFD6268DA
:1006280000EB5200B0FBF2F292B2A2F110034FF6C7
:10063800EF718B42E1D82368DA60616A0022C4E96D
:100648001822A9B95A6822F490425A609A6822F08E
:100658002A029A601A6842F0010220461A60BDE830
:10066800F840FFF73DBF80F87030FFF7A9FE99E723
:100678002046FFF7DDFE2368E4E7474AB0F5004F60
:10068800D35C33D0082BB8D801A252F823F000BFAE
:1006980023060008EF060008D7060008030600082E
:1006A800D106000803060008030600080306000830
:1006B800BD06000863685A0802F50042B2FBF3F26F
:1006C80092B2A2F11003B2E700F090FCA7E76368CA
:1006D8005A0802F5F40202F59052B2FBF3F292B214
:1006E800A2F11003A3E700F0CFFC98E7082B84D809
:1006F80001A252F823F000BF8B0700088507000805
:100708006D070008030600085507000803060008DF
:10071800030600080306000829070008012070479F
:100728006268530803F58033B3FBF2F39BB2A3F17D
:1007380010024FF6EF718A423FF65FAF23F00F01C8
:10074800C3F3420223680A43DA6076E700F04EFCFE
:1007580063685A0802EB4000B0FBF3F39BB2A3F1C5
:100768001002E6E76268530803F5740303F51053B3
:10077800B3FBF2F39BB2A3F11002DAE700F084FCBA
:10078800E6E700F069FCE3E7F369FFEF00380140B2
:100798000044004000100240B022000838B50E4A5C
:1007A8000E4B12781B6805464FF47A70B0FBF2F0D6
:1007B800B3FBF0F000F0B2FD08B90F2D01D901200C
:1007C80038BD0446024629464FF0FF3000F06EFD62
:1007D800034B20461D6038BD0000002008000020A3
:1007E80004000020074A08B5136843F0100313609B
:1007F800032000F047FD0020FFF7D0FFFFF7C8FDFA
:10080800002008BD00200240034A044B11681B78F1
:100818000B441360704700BF0C010020000000204B
:10082800014B1868704700BF0C010020002800F039
:1008380090822DE9F0430368D90783B004464FD569
:10084800B6494A6802F00C02042A00F071814A682D
:1008580002F00C02082A00F067816368B3F5803F54
:1008680017D0002B00F0A081B3F5A02F00F05C8218
:10087800AA4B1A6822F480321A601A6822F480227D
:100888001A60A64AA168D36A23F00F030B43D36208
:100898000AE0A24A136843F480331360D36AA1685C
:1008A80023F00F030B43D362FFF7BAFF9B4F0546B4
:1008B8004FF40038012605E0FFF7B2FF401B64281B
:1008C80000F26E8198FAA8F33A6898FAA8F3B3FA96
:1008D80083F303F01F0306FA03F31342ECD02368F3
:1008E8009F0742D58D4A516811F00C0F00F0CB805C
:1008F800516801F00C01082900F0C1802269002A22
:1009080000F0B181012292FAA2F3B3FA83F303F162
:10091800845303F584139B0017461A60FFF780FF82
:100928007E4E05464FF0020805E0FFF779FF401BB1
:10093800022800F2358198FAA8F3326898FAA8F3E9
:10094800B3FA83F303F01F0307FA03F31342ECD05F
:100958003168F82292FAA2F26369B2FA82F221F0BF
:10096800F80193400B43336023681D0721D45807CF
:100978004DD56A4BDA69D10040F1C3804FF00008C9
:10098800674D2B68DA0540F1FB80E368012B00F026
:100998009081002B00F03181052B604B1A6A00F022
:1009A800D08122F001021A621A6A22F004021A6245
:1009B80084E1A269002A7DD0012292FAA2F1594B62
:1009C800564FB1FA81F10B449B0016461A60FFF7A7
:1009D80027FF4FF00208054605E0FFF721FF401BFF
:1009E800022800F2DD8098FAA8F398FAA8F398FA9A
:1009F800A8F37A6A98FAA8F3B3FA83F303F01F030B
:100A080006FA03F31342E8D023685807B1D4E06923
:100A180088B3424D6B6803F00C03082B00F0738118
:100A280002284FF0807300F0968193FAA3F3B3FA8B
:100A380083F303F1845303F584139B0000221A60A7
:100A4800FFF7EEFE2C464FF000770546012605E03D
:100A5800FFF7E6FE401B022800F2A28097FAA7F3F0
:100A6800226897FAA7F3B3FA83F303F01F0306FA91
:100A780003F31342ECD1002003B0BDE8F0835268C1
:100A8800D6033FF53BAF022292FAA2F12349086848
:100A980092FAA2F2B2FA82F202F01F02012101FADE
:100AA80002F202425BD022698A4258D0012003B088
:100AB800BDE8F083012595FAA5F11A4B174FB1FA55
:100AC80081F10B449B004FF002081A60FFF7A8FE63
:100AD800064604E0FFF7A4FE801B022860D898FAB7
:100AE800A8F398FAA8F398FAA8F37A6A98FAA8F3F8
:100AF800B3FA83F303F01F0305FA03F31342E9D1B2
:100B080082E7DA6942F08052DA61DB6903F08053E8
:100B18000193019B4FF0010832E700BF001002402B
:100B280000700040208190104A68D2037FF595AE8E
:100B38004FF4003292FAA2F1B149086892FAA2F28F
:100B4800B2FA82F202F01F02012101FA02F2024215
:100B58003FF4C6AE6268002A7FF4C2AEA6E7A84D8D
:100B6800F821286891FAA1F16269B1FA81F120F0BF
:100B7800F8008A4002432A601D077FF5F8AE18E79F
:100B88002B6843F480732B60FFF74AFE06462B68F8
:100B9800DB053FF5FAAEFFF743FE801B6428F6D964
:100BA800032003B0BDE8F083954D2B6823F4803310
:100BB8002B602B6823F480232B60EB6AA26823F058
:100BC8000F031343EB62FFF72BFE4FF40038064682
:100BD800012704E0FFF724FE801B6428E0D898FA78
:100BE800A8F32A6898FAA8F3B3FA83F303F01F036B
:100BF80007FA03F31342EDD171E6814D2B6A23F016
:100C080001032B622B6A23F004032B62FFF708FE13
:100C18004FF002090646012713E099FAA9F36A6A18
:100C280099FAA9F3B3FA83F303F01F0307FA03F35E
:100C380013420ED0FFF7F4FD41F28833801B98422F
:100C4800AED899FAA9F399FAA9F3002BE5D02A6A44
:100C5800E6E7B8F1000F3FF4DAAE694AD36923F04A
:100C68008053D361D3E6012595FAA5F3B3FA83F34C
:100C780003F1845303F584139B00614F1A60FFF757
:100C8800CFFD4FF00208064604E0FFF7C9FD801BC0
:100C9800022885D898FAA8F33A6898FAA8F3B3FA1C
:100CA80083F303F01F0305FA03F31342EDD123681E
:100CB8005BE6534A136A43F001031362FFF7B0FD82
:100CC8004F4F05464FF00209012614E099FAA9F39F
:100CD8007A6A99FAA9F3B3FA83F303F01F0306FAC1
:100CE80003F31342B5D1FFF79BFD41F28833401B54
:100CF80098423FF655AF99FAA9F399FAA9F3002B50
:100D0800E4D03A6AE5E701283FF4B6AE6B68226A98
:100D180003F4803191427FF4C9AE606A03F4701322
:100D2800181A18BF0120A7E603F18043A3F53C3346
:100D38001A6842F480221A601A6842F480321A60F3
:100D48009FE542F004021A621A6A42F001021A622E
:100D5800B4E70120704793FAA3F3B3FA83F303F1DE
:100D6800845303F584139B0000221A60FFF758FD93
:100D78004FF000780646012705E0FFF751FD801B7C
:100D880002283FF60DAF98FAA8F32A6898FAA8F354
:100D9800B3FA83F303F01F0307FA03F31342ECD10A
:100DA800D4E908136A680B4322F4741213436B6086
:100DB8004FF0807393FAA3F3B3FA83F303F18453E8
:100DC80003F584139B000E4E1F60FFF729FD4FF0BB
:100DD80000780446012505E0FFF722FD001B0228E4
:100DE8003FF6DEAE98FAA8F3326898FAA8F3B3FA99
:100DF80083F303F01F0305FA03F31342ECD03AE63A
:100E080000100240002800F0C8806F4A136803F001
:100E180007038B422DE9F0410D4604460CD21368B6
:100E280023F007030B431360136803F007038B4297
:100E380002D00120BDE8F08123689F0706D56349E9
:100E4800A0684A6822F0F00202434A60DE072FD504
:100E58006168012900F0A380022900F08B8002223A
:100E680092FAA2F3594B186892FAA2F2B2FA82F2F5
:100E780002F01F02012303FA02F20242D9D0534EB4
:100E8800736823F003030B437360FFF7C9FC41F257
:100E98008838074605E0FFF7C3FCC01B404500F251
:100EA80090807368626803F00C03B3EB820FF2D191
:100EB800454A136803F00703AB4209D9136823F0C6
:100EC80007032B431360136803F00703AB42B0D149
:100ED8002368580706D53D49E0684A6822F4E0626D
:100EE80002434A60190707D5384A2169536823F431
:100EF800605343EAC103536034494A6802F00C0363
:100F0800082B17D03249314BF0225B6892FAA2F2D3
:100F1800B2FA82F203F0F003D3402E4A2E48D35C93
:100F28002E4A006821FA03F31360FFF737FC00200C
:100F3800BDE8F0814FF4701393FAA3F302F4701034
:100F4800B3FA83F320FA03F32548C96AC35C0F2078
:100F580090FAA0F0B0FA80F001F00F01C1402148EA
:100F6800D203405C4ABF1A491F49B1FBF0F101FBAB
:100F780003F1C8E74FF0007393FAA3F2134A10681D
:100F880093FAA3F3B3FA83F303F01F03012202FADF
:100F980003F303427FF473AF4BE7012070474FF42C
:100FA800003292FAA2F3094B1B6892FAA2F2B2FA43
:100FB80082F202F01F0201FA02F21A427FF45FAFD6
:100FC80037E7032036E700BF002002400010024048
:100FD80000127A00D4220008040000200800002033
:100FE800B4220008C422000800093D0015494B68D6
:100FF80003F00C02082A01D01348704710B44FF4CC
:10100800701292FAA2F2B2FA82F203F470100F4C44
:10101800D040CA6A205C0F2191FAA1F1DB03B1FA32
:1010280081F102F00F024CBF074B094B5DF8044BEE
:1010380022FA01F207498A5C48BFB3FBF2F303FBCB
:1010480000F070470010024000127A00B422000835
:1010580000093D00C4220008084B4FF4E0625B68B9
:1010680092FAA2F2B2FA82F203F4E0630449D3409E
:10107800044ACB5C1068D840704700BF001002409B
:10108800E422000808000020084B4FF460525B6817
:1010980092FAA2F2B2FA82F203F460530449D340FE
:1010A800044ACB5C1068D840704700BF001002406B
:1010B800E4220008080000202DE9F04F0D6883B0F5
:1010C800002D00F0C280DFF8ACC100234FF001080A
:1010D80076E0D0F800B04FEA4309032606FA09F68D
:1010E80002F003072BEA060B07FA09F70AF1FF3AA1
:1010F80047EA0B07BAF1010F6FEA0606076040F2EC
:101108009180C7688C683E4004FA09F43443C4608F
:10111800D40051D5534EB46944F00104B461B469A4
:1011280023F0030606F1804604F0010406F5803634
:10113800019403F003044FEA840A019FB7680F245F
:1011480004FA0AF9B0F1904F27EA09070DD0464C86
:10115800A0427DD0454CA0427ED0454CA0420CBF59
:101168000324052404FA0AF42743B760DCF8004096
:101178006FEA0E06D70354BF34404EEA0404CCF895
:101188000040DCF80440970354BF34404EEA04049E
:10119800CCF80440DCF80840D70254BF34404EEA8B
:1011A8000404CCF80840DCF80C40920254BF3440E8
:1011B8004EEA0404CCF80C40013335FA03F244D06B
:1011C80008FA03F414EA050EF6D04A6822F0100A69
:1011D800BAF1020F7FF47DAF4FEAD30900EB89091A
:1011E80003F00707D9F82060BF004FF00F0A0AFA8A
:1011F80007FB26EA0B0A0E69BE4046EA0A06C9F84A
:101208002060D0F800A04FEA4309032606FA09F641
:1012180002F003072AEA060A07FA09F747EA0A0763
:10122800F6430760876807EA060ACF6807FA09F7EE
:1012380047EA0A078760D0F804A0C2F300172AEA31
:1012480004049F40274347605BE703B0BDE8F08F85
:1012580008FA0AF4274388E74FF0020909FA0AF462
:10126800274382E7001002400004004800080048B5
:10127800000C0048000401400AB181617047816296
:10128800704700BF0849CA6810B400024FF6FF044F
:10129800224000F4E063134343F0BF6343F4003398
:1012A8005DF8044BCB60704700ED00E0194BDB683C
:1012B800C3F3022330B4C3F10705042D03F104047A
:1012C80028BF0425062C19D9033B4FF0FF349C4056
:1012D80022EA04024FF0FF34AC4021EA04019940AD
:1012E800002841EA02010CDB00F1604000F5614092
:1012F8000901C9B280F8001330BC704700221346B8
:10130800E8E7054B00F00F0009010344C9B219765C
:1013180030BC704700ED00E0FCEC00E00138B0F1B3
:10132800807F0ED2084B10B4084C5860F02084F827
:1013380023000022072110469A605DF8044B1960CB
:1013480070470120704700BF10E000E000ED00E0AA
:10135800054BD3F888204FF0006142F47002C3F8BF
:1013680088209960704700BF00ED00E0F0B51021BB
:1013780091B001200024CDE90A0102254FF4601341
:1013880006A80F93CDE90744CDE90144CDE903440C
:1013980009940C9400940E9406950D950F26FFF76A
:1013A80045FA022700224FF4806329466846CDE9B2
:1013B8000067CDE902230494FFF724FD11B0F0BDC6
:1013C80010B500248AB0FFF70DFAFFF7CFFFCDE97B
:1013D8000444CDE906442A4B08945A69294842F442
:1013E80000225A615A6902F400220092009A5A694E
:1013F80042F480025A615A6902F480020192019A09
:101408005A6942F400325A615A6902F4003202926F
:10141800029A5A6942F480225A615B6903F4802374
:10142800039322464FF40051039BFFF725FF164B09
:10143800164806944FF4005204A9CDE90423FFF797
:101448003BFE4FF400520123CDE904230D4800224E
:10145800002304A9CDE90623FFF72EFE0C480D4909
:1014680084604FF416420C23C0E90344C0E90644E3
:10147800C0E90844C0E900124361FFF78BF8FEE7B2
:101488000010024000040048000021100008004835
:101498008C00002000440040DFF834D0002103E035
:1014A8000C4B5B58435004310B480C4B42189A4282
:1014B800F6D30B4A02E0002342F8043B094B9A4258
:1014C800F9D3FFF745FF00F011F8FFF779FFFEE7C2
:1014D800004000208C23000800000020700000203D
:1014E8007000002014010020FEE7000070B50D4DCB
:1014F8000D4C641BA4100026A64209D10B4D0C4CC0
:1015080000F0C6FE641BA4100026A64205D170BDDB
:1015180055F8043B98470136EEE755F8043B9847E1
:101528000136F2E784230008842300088423000896
:101538008823000803685A004CBF43F0004323F097
:1015480000431844704700BF2DE9F84329B34F1EE4
:10155800044615463E464FF0000808EB060101EB2D
:10156800D171491004EBC1094846FFF7E3FF034670
:10157800C80008308F42204409D0AB4209D8FFF791
:10158800D9FF0138A8420AD201F10108E5E7AB42C8
:1015980005D9884501D04E1EDFE74FF000094846BF
:1015A800BDE8F883012807D0022807D0044B00289B
:1015B8000CBF184600207047024870470248704721
:1015C8005D1C0008651C00086D1C000830B5234B25
:1015D80083B004468D1E3BB301A92846AFF30080B3
:1015E800E8B101992A46FFF7AFFF0146B8B1FFF706
:1015F800A1FF4B68A064012B2BD0002B01F1040044
:1016080023DBFFF797FF0023C4E913030368002BCC
:1016180010DBFFF78FFF2061002003B030BD0023EF
:101628000920236103B030BD0D490E48091AC910BD
:101638000191D7E7C3F30360FFF7B4FF00282061E7
:1016480014BF0020092003B030BD0123C4E91303EF
:10165800DCE7002323610520DFE700BF000000006E
:1016680084230008EC2200080368DA0710B5044652
:1016780006D49B0700F1480009D5FEF795FD2368BD
:10168800590709D51A070ED5DB0613D510BDFEF785
:1016980083FD23685907F5D404F1D000FEF78CFDCB
:1016A80023681A07F0D404F5A870FEF78DFD2368A7
:1016B800DB06EBD404F5E870BDE81040FEF7C8BDC2
:1016C8000346006800B11844704700BF704700BF68
:1016D80070B504460E46316C2046FFF777FF054685
:1016E80088B9336C636132462369214601209847E3
:1016F8000828F0D0072806D12846316CFFF7E6FF06
:10170800301DFEF73DFD00F057FD00BF2DE9F04705
:101718000D1D064614460FCDADF5727D0DF10C0C6E
:10172800ACE80F000FCDACE80F000FCDACE80F0010
:1017380095E80F0002ADF768D6F818808CE80F001E
:1017480000232B6021E02B6C73614FF4F072294663
:101758007AA800F038FD33697AAA3146504698478E
:10176800889BCDE9005821466B6481463346324652
:101778000120B8470446E8B94FF4F0727AA9284620
:1017880000F021FDB9F1080F1BD1296C3046FFF795
:101798001DFF09345FFA84FA81460028D3D0AB6B69
:1017A8004AF01001CDE9005832466B6401203346F7
:1017B800B84708B14FF0090948460DF5727DBDE8F4
:1017C800F087B9F1070FF5D12046296CFFF77EFFA6
:1017D80003A8FEF7D5FC00BFF0B5CB6B0B640E1D5C
:1017E8000F4605460FCEF9B001AC0FC40FCE0FC49B
:1017F8000FCE0FC496E80F004FF0FF3684E80F00B5
:10180800009606E02B696A46294698470828044648
:1018180008D110992846FFF7D9FE0028F2D00920F0
:1018280079B0F0BD6846FFF71FFF062CF7D139469F
:101838002846FFF74DFF00BF30B4DD6BC160826101
:1018480019461D64002230BCFFF760BF70B5C6683A
:1018580043690B64AEB903690A4604460D4601465E
:1018680002209847072805D008280FD12946204686
:10187800FFF72EFF3046296CFFF728FF281DFEF7DB
:101888007FFC0122FFF742FF00F096FC00F094FC79
:10189800C26822B1CA6B0A640022FFF737BFFFF79C
:1018A8009BBF00BF012912D009D873B90F2A0CD8E1
:1018B80000EB820218465368009A13607047033998
:1018C800012994BF01200220704702207047084672
:1018D800704700BF10B584B0002303AC0A460094DB
:1018E8001946FFF7DFFF039804B010BD012912D095
:1018F80009D873B90F2A0CD800EB8200009A126835
:101908004260184670470339012994BF012002201C
:101918007047022070470846704700BF10B584B072
:10192800002303AC039200940A461946FFF7DEFF32
:1019380004B010BDF0B5D36B1364151D8C46064674
:101948000FCDADF50F7D17AC0FC40FCD0FC40FCD64
:101958000FC495E80F004FF0FF3784E80F00654685
:10196800169710E0FFF7DAFF294616A8B047034696
:1019780016AA6946082083B9049B98470528044697
:101988000CD0092809D026996846FFF71FFE0346A0
:101998006A460C2116A8002BE4D0092416A8FFF7E4
:1019A80063FE20460DF50F7DF0BD00BF2DE9F04F19
:1019B800CC6C89B00D4654F8041B0694174600F009
:1019C80003081E46002B79D00B0CDAB209048DF8F7
:1019D8001D30022304EB820405918DF81C302B6D19
:1019E800B8F1020F08BFAC6B13F001030CD03846F6
:1019F80005A900F093FA18B9082009B0BDE8F08FDE
:101A0800092009B0BDE8F08FD4F800A0BAF1000FA2
:101A1800EDD0019300F008030293022E4AD0B4F8E7
:101A280000A0B4F802900434AA6C29F0010B0F212D
:101A380038469344FFF74EFF834539D82AF0010210
:101A48005A44824294BF002001204FEA490303F020
:101A580002030AF0010A43EA0A03012B49D0022BC8
:101A680032D0002BCCD1B8F1000F02D0002840F0C2
:101A7800CD800434D4F800A0BAF1000FCDD105A967
:101A8800384600F04BFA0028BAD1019B002BB3D09E
:101A98000F213846FFF71EFF0E2102463846FFF792
:101AA8003DFF38466A4A0F21FFF738FF0720A8E7AD
:101AB8000020CAE7D4F804900834B5E709020323E4
:101AC8000591ADF81C308AE7236823F0004BB8F184
:101AD800000F45D128B1029A002A5CD0BBF1000F53
:101AE80074D0002B00DA04340BF1010B04EB8B04E7
:101AF800C0E7B8F1000F19D1B0B1D4E90023991C9F
:101B08004FEAD2723FF47CAF05F1580101330491DA
:101B180000F09080201DFFF7D3FD04AB0146284656
:101B2800AFF3008000285BD10834A3E70D213846C5
:101B3800D5F82090FFF7CEFE8145F5D1AB6A9C42DF
:101B4800F2D12046FFF7F6FC0F2102463846FFF790
:101B5800E5FE38462A460021FFF7E0FE072050E759
:101B68000D213846D5F82090FFF7B4FE814501D005
:101B78002368B6E7AB6A9C42FAD104220021C5E982
:101B88000B12A318C5F828B06B6323688B4259DB86
:101B980001230193A8E705F15803CDF80C8004F15F
:101BA800040AB04691461E460DE00496FFF788FDEC
:101BB80004AB014600222846AFF3008009F1010971
:101BC8000AF1040AE8B9D9455046EED138460D2144
:101BD800FFF780FE049B2862C5E90934062010E758
:101BE80081460D213846FFF775FEB9F1020F2862CC
:101BF80025D12B46049A43F82C2F6B62AC62062041
:101C0800FFE646462368DDF80C806AE72046FFF7C2
:101C180091FC04340246AC6328461446AFF30080B6
:101C280000283FF4EDAE384622460F21FFF776FE36
:101C38000720E6E638460D21FFF74CFE2862049B94
:101C48006B62DBE70BF1010004EB80007AE700BF71
:101C5800000000000023FFF7A9BE00BF0123FFF723
:101C6800A5BE00BF0223FFF7A1BE00BF2DE9F043C8
:101C78000646C3B015461C46042900F2B980DFE8C1
:101C880001F09A53B7290300002C40F0B180102AC4
:101C980000F2AE800368D80600F1F38020AF384622
:101CA800FEF7E0FAB06B0023012404FA03F22A429B
:101CB800014604D051F8042B47F823200846013385
:101CC800042BF2D1B0633846FEF7C2FA002043B0C5
:101CD800BDE8F083032C40F08B8094B204EB1243F0
:101CE800102B4FEA124500F2838003681F0700F1AA
:101CF800D08020AF3846FEF789FA07EBC501B56BEF
:101D080054B10B46E81A01EBC401E4001A5843F831
:101D1800042B8B42FAD125443846B563FEF754FAB2
:101D2800002043B0BDE8F083012C4FEA124895B279
:101D38005AD0052C5CD108EB0509B9F1200F57D80A
:101D4800B8F10F0F77D9A946002D40F08880B36B02
:101D58006DB320AF4FF0000907EBC807043F03EB52
:101D6800C50553F8041B47F8041FAB42F9D1B9F174
:101D7800000F0FD06F464146102938BF102107EBDE
:101D8800C101843903EBC90553F8040B41F8040F6A
:101D9800AB42F9D1012C00F08480B8F10F0FB56384
:101DA80045D9B9F1000F02D06846FEF705FA0020C0
:101DB80043B0BDE8F083DCB9876B2346012094B2B9
:101DC80006F1040C00FA03F22242394604D051F815
:101DD800042B4CF823200F460133102BF2D115F4B5
:101DE8000050E4D1B76304E008EB0503102B03D9D6
:101DF800022043B0BDE8F083B8F10F0FF8D833687C
:101E0800DA0706D5304623F0030340F8483BFEF7CF
:101E1800C7F920AF3846FEF7C3F9B36B002D99D147
:101E28001D460435B5633846FEF7B6F9BFE720A866
:101E3800FEF7BAF9B5E7B9F1100F40D9A9F11009C1
:101E48003368D90708D523F00103304643F002036D
:101E580040F8483BFEF7ACF9B9F1000F32D03368CF
:101E68005A0720D4B8F10F0F25D96F463846C8F164
:101E78001005FEF7A5F9002DB36B7FF77CAF20AFF7
:101E88006AE723F01003336006F5E870FEF7EAF915
:101E980004E723F00803036000F5A870FEF7B6F91D
:101EA80027E720AFBDE7304623F0040340F8D03BD6
:101EB800FEF786F9D6E720A8FEF77AF9D5E74FF0BE
:101EC8000009BDE7B8F10F0F3FF641AF20AF384624
:101ED800FEF76EF9B36B002D7FF43CAF3846FEF782
:101EE80063F964E7027A7AB9437AA3B14268013B9D
:101EF80010B4437213680321141D01721A0244605E
:101F0800026010BC180E70470368013A02721A0288
:101F18000260180E7047B020704700BF2DE9F043EB
:101F2800054685B00E464FF000083046FFF7DAFF49
:101F3800B028044600F0B280070620D500F0F00370
:101F4800802B4DD0902B36D0A02B60D0B02B74D0E6
:101F5800C02B00F08B8000F0F803D02B0BD100F0E1
:101F68000702013242F40022052301212846FFF727
:101F78007DFE0028D9D0092005B0BDE8F0830DF119
:101F88000C09002319468700CDF800900D22284639
:101F9800FFF788FCFFB2039BCDF80090043760067A
:101FA8004CBFDF1BFF18002319460D222846039754
:101FB800FFF79CFCB9E700F00D030D2BDBD003AF56
:101FC800002300F00F02194600972846FFF76AFC25
:101FD8000023009719460D222846FFF787FCA4E73F
:101FE8003046FFF77FFF24022043B0F5004FC2D0F0
:101FF80004010023A2B219462846FFF737FE00283D
:10200800B9D114F4004F18BF4FF001088DE7C2434F
:1020180002F007034FF47F621A41010702F47F625E
:102028004FF0000348BF42F4804219462846FFF7A4
:102038001DFE00283FF479AF9DE7B12833D0B228C0
:1020480000F08B80B32839D000F0FC03B42B92D079
:1020580000F007020132012342F400221946284603
:10206800FFF704FE00283FF460AF84E7C62842D09B
:10207800C7284CD000F0F803C02B5BD0C82860D02C
:10208800C9287FF478AF3046FFF72CFF020300F031
:102098000F0002F470220130024365E7B8F1000F27
:1020A80018D0002068E73046FFF71CFF02460028DA
:1020B8003FF461AF10F0F003D0D05CE73046FFF793
:1020C80011FF010300F00F0001F47021421C0123ED
:1020D8000A43C3E703AC43460E2241460094284610
:1020E800FFF7E0FB0094284643460F224146FFF7DE
:1020F800FDFB404640E73046FFF7F4FE010300F0E1
:102108000F0001F47021421C03230A43A6E730465E
:10211800FFF7E8FE024600283FF42DAF10F0F00369
:102128007FF429AF04212846FFF7A0FD00283FF4DB
:10213800FCAE20E700F00F020132032342F4202214
:102148008CE73046FFF7CEFE00F0F00200F00F03F8
:102158001032013343EA023206E700230DF10C097D
:102168000D221946CDF800902846FFF79BFB304614
:10217800FFF7B8FE02064FF002070CD5039B00F0EC
:102188007F00B840034430460393FFF7ABFE0306D5
:1021980007F10707F2D4039BCDF8009000F07F0405
:1021A80003F50172BC400023144419460D22284649
:1021B8000394FFF79BFBB8E608B5062000F03AF851
:1021C800012000F063F80A44914200F1FF3300D186
:1021D800704710B511F8014B03F8014F9142F9D13E
:1021E80010BD1F2938B504460D4604D916230360CF
:1021F8004FF0FF3038BD426C12B152F821304BB964
:10220800204600F031F82A4601462046BDE838400D
:1022180000F018B8012B0AD0591C03D1162303600B
:102228000120E7E7002442F8254028469847002087
:10223800E0E70000024B01461868FFF7D2BF00BF75
:102248000C00002038B5074D002304460846114607
:102258002B6000F013F8431C02D12B6803B12360F4
:1022680038BD00BF1001002000F000B8024B582212
:102278001A604FF0FF30704710010020024B5822BF
:102288001A604FF0FF30704710010020FEE700BFD2
:10229800F8B500BFF8BC08BC9E467047F8B500BF4B
:0822A800F8BC08BC9E4670471B
:1022B0000408020002030405060708090A0B0C0DB6
:1022C0000E0F10100102030405060708090A0B0C83
:1022D0000D0E0F10000000000000000001020304BA
:0C22E000060708090000000001020304CA
:1022EC0088F0FF7FB0AB1080D4F0FF7FB0A80980DE
:1022FC00A4F1FF7F01000000D0F2FF7FB0A90280A3
:10230C0064F3FF7FB0B0A880B4F3FF7F010000003E
:10231C00BCF3FF7FB0B0AA80F0F3FF7FAE71B28048
:10232C00B4F4FF7FAB3F38800CF5FF7F0100000059
:10233C0018F5FF7FB0B0AA8054F5FF7F01000000B4
:10234C00F0F5FF7FAB0EB28060F6FF7FB0AF088078
:10235C0000F9FF7F0100000010F9FF7FAD3F028004
:10236C0080FBFF7F01000000B0FBFF7FB0AD04805D
:08237C0044FEFF7F0100000098
:0423840059030008F1
:042388003503000811
:10238C00010000001000000000127A001000002074
:10239C000000000000000000000000000000000031
:1023AC000000000000000000000000000000000021
:1023BC000000000000000000000000000000000011
:1023CC000000000000000000000000000000000001
:1023DC0000000000000000000000000000000000F1
:1023EC0000000000000000000000000000000000E1
:04000005080014A13A
:00000001FF
